:10000000003000201D0400009106000019040000CB
:1000100000000000000000000000000000000000E0
:100020000000000000000000000000009106000039
:100030000000000000000000190500001504000089
:100040009106000091060000910600009106000054
:100050009106000091060000910600009106000044
:100060009106000091060000910600009106000034
:100070009106000091060000910600009106000024
:100080009106000091060000910600009106000014
:100090009106000091060000910600009106000004
:1000A00091060000910600009106000091060000F4
:1000B00091060000910600009106000091060000E4
:10040000FFFFFFFFFFFFFFFFFFFFFFFFFEFFFFFFFD
:10041000084800470748004706480047064807497C
:100420000860074908600BF091FD0BF04BFE02F0ED
:1004300027FBC04671050000FFFFFFFF80E100E0E1
:1004400080E200E072B687490968C96B864A0439C0
:10045000026004308142FBD1EFF314800221084393
:1004600080F31488BFF36F8FEFF3088080F309885F
:1004700062B67C48006828E07A48006825E0794840
:100480000068018B002904D1416AC269D36999428D
:1004900000D17047FFB44046494652465B460FB410
:1004A000EFF31083F8B4EFF30981624673467446A4
:1004B000EFF30085DE07F6093543084634303CC0CB
:1004C00072B668480068C369596172B6416A0A68C1
:1004D0008A4207D189680900F9D162B630BF72B685
:1004E000016AF4E74162C261938C43835069F8C8A2
:1004F00006C88846914606C88A46934680F309880E
:10050000EFF31481002902D183F3108800BD57480E
:100510005749416062B6FEE7EFF30980203080F36F
:10052000098883F310887047FFB440464946524615
:100530005B460FB4EFF31083F8B4EFF30981624622
:1005400073467446EFF30085DE07F6093543084627
:1005500034303CC072B643480068C36959619A6838
:1005600001210A439A605A68196811604A60ACE731
:10057000EFF3108072B600B501B43A4B1B68198BCB
:10058000013119833B4801B4EFF30581586B03B483
:10059000EFF30880586308461A6B002A00D140E048
:1005A00090423ED8DA6A811A3BDB9A6BC90889000F
:1005B0005158002900D134E00A68002A04D0824250
:1005C00003D0C9680942F7D12BE088684A6862B64F
:1005D00008B4904708BC72B603BC586301BC198BC1
:1005E00001391983002918D1DA69906A2249084231
:1005F00013D1596A096891420FD0EFF30981243968
:1006000008BCF8C142464B4654465D463CC12439BD
:1006100014480068C369596157E701BC80F310882A
:1006200000BD9A6AD3E706B50178144A114203D196
:1006300011430170404000E0802006BDEFF30980C7
:100640007047EFF30880704780F308887047EFF336
:100650000380704762B6704772B67047EFF314803C
:100660007047C04674F2FF1F6B61747300ED00E0C9
:1006700000000010000000000010000080000000DA
:1006800072B60BF063FC0BF01DFD62B602F0F2F9DE
:100690000048004711040000002934D00123002243
:1006A00010B488422CD301242407A14204D28142F1
:1006B00002D209011B01F8E7E400A14204D2814201
:1006C00002D249005B00F8E7884201D3401A1A437E
:1006D0004C08A04202D3001B5C0822438C08A042B5
:1006E00002D3001B9C082243CC08A04202D3001B6B
:1006F000DC082243002803D01B0901D00909E3E7E5
:10070000101C10BC7047002801D00020C04307B463
:10071000024802A14018029003BDC046D900000063
:100720000029F0D003B5FFF7B9FF0EBC4243891A88
:100730001847C046002941D010B4041C4C40A446C0
:1007400001230022002900D54942002800D540425B
:1007500088422CD301242407A14204D2814202D230
:1007600009011B01F8E7E400A14204D2814202D250
:1007700049005B00F8E7884201D3401A1A434C084D
:10078000A04202D3001B5C0822438C08A04202D383
:10079000001B9C082243CC08A04202D3001BDC08AB
:1007A0002243002803D01B0901D00909E3E7101CEC
:1007B0006446002C00D5404210BC7047002806D08B
:1007C00003DB0020C043400801E08020000607B49E
:1007D000024802A14018029003BDC0461900000063
:1007E0000029EBD003B5FFF7A7FF0EBC4243891ADF
:1007F0001847C0467047C046002B15D1002A13D1B8
:10080000002900D1002807D003DB0020C0434108A5
:1008100002E080210906002007B4024801A1401827
:10082000029003BDD1FFFFFF03B4684601B50298F3
:1008300000F048F8019B9E4602B00CBC7047C046D1
:10084000002B11D1002A0FD1002900D1002802D09D
:100850000021C943081C07B4024802A140180290B5
:1008600003BDC04691FFFFFF03B4684601B502987F
:1008700000F044F8019B9E4602B00CBC7047C04695
:100880009C460304F0B51B0C17043F0C150C1E1CF2
:10089000041C000C7E436B4347434543FB18300C5C
:1008A0001818874202D980235B02ED18030CED185B
:1008B00063465C434A433604360CA1180004801991
:1008C0004919F0BDF0B583B0161C1F1C00900191B2
:1008D00000F04CF8041C0D1C221C2B1C301C391C75
:1008E000FFF7CEFF009A019B121A8B410899201C3A
:1008F0000A604B60291C03B0F0BDC046F0B583B060
:10090000141C1D1C0090019100F00CFA221C2B1CE1
:10091000061C0F1CFFF7B4FF009A019B121A8B41B3
:100920000899301C0A604B60391C03B0F0BDC0460A
:100930001C2101231B04984201D3000C10391B0A0F
:10094000984201D3000A08391B09984201D30009D3
:10095000043902A2105C40187047C046040302022A
:10096000010101010000000000000000F0B5444654
:100970005F4656464D46F0B41C1C85B0002900DA8F
:10098000DBE00F1C0021061C8A46101C191C002CE1
:1009900000DAC9E00196009089468046002951D1CD
:1009A000B84200D871E0FFF7C3FF002809D0202328
:1009B0004546311C1B1A85408740D940A8460F4345
:1009C00086404246150C13041B0C291C381C9B4600
:1009D000FFF762FE5B464343041C291C381C994602
:1009E000FFF79EFE330C08041843814509D94044A3
:1009F000631E804500D978E1814500D875E1023C4D
:100A000040444946411A8946081C291CFFF744FE08
:100A10005A464243071C291C48469346FFF780FE6E
:100A200036040904360C0E43B34507D946447B1EF1
:100A3000B04502D8023FB34500D81F1C2404274309
:100A4000002403E0B94211D9002400275246381C83
:100A5000211C002A03D03B1C00215842A14105B0B3
:100A60003CBC90469946A246AB46F0BD081CFFF739
:100A70005FFF041E00D0BFE0B94500D242E1019DF6
:100A80000099071C8D424741E0E7002804D101206E
:100A90000021FFF701FE80464046FFF749FF00288E
:100AA00052D1414644460B043C1B1B0CA3460D0C83
:100AB00000930124291C5846FFF7EEFD009F814654
:100AC0004743291C5846FFF72BFE330C09041943F2
:100AD0008F4208D94B464144013B884502D88F429A
:100AE00000D91AE19946C91B8B46081C291CFFF73F
:100AF000D3FD009B291C4343071C58460093FFF776
:100B00000FFE3604009D0904360C0E43B54207D98A
:100B100046447B1EB04502D8023FB54200D81F1C98
:100B200049460E04374391E75246D243031C0C1C3E
:100B3000924600215842A1412CE7002746428F41AE
:100B4000012149428A4620E720231B1A4246351CD0
:100B500082403C1CDD40DC4087402B1C150C3B4395
:100B6000291C8640201C009317049046FFF794FD33
:100B70003F0C011C794381468B46201C291CFFF742
:100B8000CFFD009C0904230C19438B450CD94B461F
:100B90004144013B884500D9BDE08B4500D8BAE00F
:100BA00002225242914441445C460C1B201C291CE9
:100BB0000194FFF771FD391C4143041C8B460198D9
:100BC000291CFFF7ADFD009A090413041B0C1943FF
:100BD0008B4509D94144631E884500D997E08B4570
:100BE00000D894E0023C41445B46CB1A49469B4600
:100BF0000B041C4300975DE7009D20231B1A4A4607
:100C00008240DD401543391C009AD9408240884615
:100C1000311C0092D9403A1C82400B1C13430193B3
:100C20002F0C2B041B0C391C40460293FFF734FD9C
:100C3000029A81464243391C40469346FFF770FDB5
:100C4000019A0904130C19438B450AD94B464919DB
:100C5000013B8D425DD88B455BD902235B429944B1
:100C600049195A468A1A101C391C0392FFF714FDC1
:100C7000029B80464343391C03989B46FFF750FD77
:100C8000019A090413041B0C19438B450AD94346E6
:100C90004919013B8D4238D88B4536D902235B4236
:100CA000984449195D464D1BAB464946009D0F04CB
:100CB000424617432A04120C3B042D0C1B0C380C23
:100CC000111C594342436B436843D3180D0C5B1905
:100CD0008C469A4202D98022520280181D0C40197B
:100CE00083450CD303D00024B0E61C1C89E665467E
:100CF0002A041B04120C9B18A6409E42F3D2013F0B
:100D00000024A3E600240127A0E69846CAE71C1C9D
:100D10006AE79946A5E7994646E70222524291447E
:100D20004144E0E6F0B55F4656464D464446F0B4D1
:100D30000D1C85B0061C92469846029001910392C4
:100D40001F1C141C8346A946002B59D1AA4269D9FD
:100D5000101CFFF7EDFD00280AD020231B1A311CC0
:100D6000D94085400B1C2B43864084409946B346AE
:100D7000250C23041B0C291C48469846FFF78CFCC5
:100D80004646071C4643291C4846FFF7C9FC5A46FD
:100D90000904130C19438E4209D909197B1E8C4290
:100DA00000D957E18E4200D854E1023F0919891B4E
:100DB0008946081C291CFFF76FFC43464343061C69
:100DC000291C48469846FFF7ABFC5A461304090411
:100DD0001B0C1943884508D90919731E8C4200D988
:100DE00036E1023E884500D832E13804304300271E
:100DF000391C05B03CBC90469946A246AB46F0BDB6
:100E0000019A934262D8181CFFF792FD041E60D12C
:100E1000019B9F4200D22CE1029F03998F426041C7
:100E20000027E5E7002A04D101200021FFF734FC68
:100E3000041C201CFFF77CFD002800D0B9E023042F
:100E40002D1B1B0CA946260C98460127311C484631
:100E5000FFF722FC41464143051C8A464846311CA7
:100E6000FFF75EFC5A460804130C1843824507D965
:100E700000196B1E844202D8824500D910E11D1C66
:100E80005346C31A181C311C9A46FFF705FC41460D
:100E90004143814688465046311CFFF741FC5A4683
:100EA000130409041B0C194388450BD94B46091937
:100EB000013B8C4200D9CFE0884500D8CCE002232A
:100EC0005B42994428044946084391E700270020E3
:100ED0008EE720231B1A424657468240DF401743C5
:100EE000524682400192321CDA40291CD94085408A
:100EF000131C2B4302933D0C3B041B0C8846081C1F
:100F0000291C9A46FFF7C8FB534643438146291CD8
:100F100040469B46FFF704FC029A0904130C194350
:100F20008B4506D94B46C919013B8F4200D8ABE02F
:100F300099465A468A1A101C291C9346FFF7ACFBA7
:100F400053464343291C804658469A46FFF7E8FB20
:100F5000029A090415042D0C29438A4506D94346F3
:100F6000C919013B8F4200D886E098465746CF1BEF
:100F7000BA464946019F0804424610433D042D0CE1
:100F800003043F0C1B0C020C291C594355437B43A3
:100F90007A43EB180F0CDB198C469D4202D980274F
:100FA0007F02D2191D0C521992455FD356D00027EB
:100FB0001EE720231B1A311C2F1CD940DF4085401F
:100FC0000B1C84402B4386400193B3462304260C1C
:100FD0001B0C381C311C9846FFF75EFB424642430F
:100FE000051C311C381C9146FFF79AFB019F090430
:100FF0003B0C1943894507D909196B1E8C424DD802
:1010000089454BD9023D09194A468A1A101C311CE0
:101010009246FFF741FB43464343071C311C5046B1
:101020009946FFF77DFB019A090413041B0C194331
:10103000894507D909197B1E8C422DD889452BD9A2
:10104000023F09194B46CB1A2D0499462F43FDE662
:101050001E1CCAE61F1CAAE6994633E761460A042D
:101060001B04120C9B18A6409E42A0D201380027F8
:10107000BEE600270120BBE68A4500D875E70223BB
:101080005B429844C91971E78B4500D850E70223A9
:101090005B429944C9194CE71F1CD3E71D1CB3E7F9
:1010A000023D0019ECE6C04680B500AF0BF06EF8CB
:1010B000BD4680BD80B500AF0BF0BEF808F09AF9D0
:1010C000BD4680BD80B582B000AF78603960BD4656
:1010D00002B080BD80B500AFFFF7ECFF024B181CDB
:1010E00005F06AFDFEE7C0461C07010090B589B017
:1010F00000AF78600023BB6100233B613B1C0C33D5
:1011000009221A703B1C0C330A225A703B1C1F33F5
:1011100000221A7025E03B1C1F331B783A1C0C324E
:10112000D35C3C1C0F340020191C01220AF086F805
:10113000031C23703B1C0F331B78002B0AD03B1C75
:101140001F331B783A1C0C32D35C764A101C191CD6
:1011500000F0ACF93B1C1F331A783B1C1F330132E3
:101160001A703B1C1F331B78012BD4D93C1C0F3445
:10117000002009F0E3FE031C23703B1C0F331B7897
:10118000002B04D0684B181C00F090F903E0674B6B
:10119000181C00F08BF93B1C1F3300221A7048E02A
:1011A0003B1C1E3300221A7037E03B1C1E331B7899
:1011B0003A1C0C32D35C1A1C3B1C1E331B78391CA6
:1011C00008315B00CB183C1C0F340020111C1A1C8A
:1011D0000AF0E8F8031C23703B1C0F331B78002B2C
:1011E0000AD03B1C1E331B783A1C0C32D35C504A8D
:1011F000101C191C00F05AF93B1C1E331A783B1CBA
:1012000008335200D35ABA69D318BB613B1C1E3352
:101210001A783B1C1E3301321A703B1C1E331B789C
:10122000012BC2D93B1C1F331A783B1C1F330132E0
:101230001A703B1C1F331B78632BB1D9BB69181C78
:10124000C821FFF729FA031C3B613A4A3B69101C8D
:10125000191C00F02BF93C1C0F34002009F06EFE25
:10126000031C23703B1C0F331B78002B03D0324B25
:10127000181C00F01BF900237B613B1C1F3300226C
:101280001A7037E03B1C1F331B783A1C0C32D35CBE
:101290001A1C3B1C1F331B78391C08315B00CB1810
:1012A0003C1C0F340020111C1A1C0AF07BF8031C94
:1012B00023703B1C0F331B78002B0AD03B1C1F33C1
:1012C0001B783A1C0C32D35C194A101C191C00F014
:1012D000EDF83B1C1F331A783B1C08335200D35ADD
:1012E0007A69D3187B613B1C1F331A783B1C1F3370
:1012F00001321A703B1C1F331B78012BC2D97B694A
:101300005B087B613B691A1C0A327B699A4205D2F1
:101310007B690A4A101C191C00F0C8F8642006F00A
:1013200081FC98E72CED000060ED000080ED0000EE
:101330009CED0000C4ED0000D4ED0000F4ED0000D1
:1013400080B582B000AF7860FFF7AEFE0AF034FFE0
:101350000A2008F031F8FBE780B586B000AFF860EE
:10136000B9607A607B685968BB68FA68081C111C10
:101370001A1C02F01FFD031C7B617B69181CBD4613
:1013800006B080BD80B582B000AF78607B685B68D6
:10139000181C0021002202F00DFD0023181CBD4680
:1013A00002B080BD80B584B000AF78607B68002B50
:1013B00001D100233EE07B68181C00F043F8031CB9
:1013C000BB607B685B68181C02F0DAFC031CBA681F
:1013D0001343BB600023FB6018E0184BFA689200CF
:1013E000D2587B689A420ED104F0CAFB134BFA68BC
:1013F00092000021D150124B1B685A1E104B1A60EC
:1014000004F0D4FB05E0FB680133FB60FB680F2BA5
:10141000E3DD7B681A6880235B02134003D07B689E
:10142000181C01F01BFBBB68002B02D001235B42A0
:1014300000E00023181CBD4604B080BD30F2FF1F41
:1014400070F2FF1F80B584B000AF78607B68002B1E
:1014500009D07B68181CFFF795FF031C002B1EDAD0
:1014600001235B421CE00023FB6015E00E4BFA6891
:101470009200D358002B0CD00B4BFA689200D35833
:10148000181CFFF7DFFF031C013302D101235B426D
:1014900006E0FB680133FB60FB680F2BE6DD0023F1
:1014A000181CBD4604B080BD30F2FF1F0FB490B5CC
:1014B00085B002AF3B1C1C333B600A4B58680A499D
:1014C00001235A42BB693C68009400F089F8031C70
:1014D0007B607B68181CBD4603B090BC08BC04B0A0
:1014E0001847C04630F2FF1FD929000090B587B0D9
:1014F00000AFF860B9607A601A1CFB1C1A700023F8
:101500007B61BB6A002B02DA0023BB6217E016E0A6
:101510007B695A1C7B689A420EDAFB1C00241C571C
:10152000FB1C00215956FA68BB68081C111C98471F
:10153000031C9C4200D006E07B6901337B617A6921
:10154000BB6A9A42E4DB7B69181CBD4607B090BDBC
:1015500090B587B000AFF860B9607A603B60002357
:101560007B613B1C133301221A7021E07B695A1CFA
:101570007B689A4212DA3B681B785CB23B681B7846
:1015800059B2FA68BB68081C111C9847021C3B1C26
:101590001333A21A51424A411A7003E03B1C133321
:1015A00001221A707B6901337B613B6801333B6028
:1015B0003B681B78002B04D03B1C13331B78002B9B
:1015C000D4D13B681B78002B02D07B69013B7B6147
:1015D0007B69181CBD4607B090BDC04600000000E6
:1015E00090B5A5B002AFF860B9607A603B600023A7
:1015F000BB630023FB637B68013302D1D24B7B606A
:1016000022E021E03B1C37331B785BB2002B09D171
:10161000BB6B013303D101235B4201F068F8FB6B24
:1016200001F065F8FB6B0133FB637A68FB6B9A4250
:101630000ADD3B1C373300215956FA68BB68081C89
:10164000111C9847031CBB633B685A1C3A603A1C48
:1016500037321B7813703B1C37331B785BB2252B5A
:10166000D0D13B681B785BB2252B16D1FB6B0133C5
:10167000FB637A68FB6B9A420DDD3B685A1C3A604B
:101680001B7859B2FA68BB68081C111C9847031CE8
:10169000BB6301F02AF801F028F83B1C6B332022D1
:1016A0001A703B1C573300221A7004237B640023FA
:1016B0007B663B1C4F3300221A703B1C4D330022CB
:1016C0001A703B1C4C3300221A703B1C4E33002214
:1016D0001A703B1C4B3300221A703B1C483300220B
:1016E0001A703B1C4A3300221A703B1C49330022FB
:1016F0001A703B1C433300221A70CCE03B681B7805
:101700005BB2203B102B00D9A8E09A008F4BD31876
:101710001B689F4601237B663B6801333B603B1C93
:101720006B333A1C6B3212781A703B1C4E333A1CE6
:101730004E3212781A703B1C4D333A1C4D321278DF
:101740001A703B1C4C333A1C4C3212781A703B1CFA
:1017500043333A1C433212781A709CE03B1C6B33C3
:1017600030221A703B6801333B603B1C4E333A1CFD
:101770004E3212781A703B1C4D333A1C4D3212789F
:101780001A703B1C4C333A1C4C3212781A703B1CBA
:1017900043333A1C433212781A707CE03B1C4E33C0
:1017A00001221A703B6801333B603B1C6B333A1CCF
:1017B0006B3212781A703B1C4D333A1C4D32127842
:1017C0001A703B1C4C333A1C4C3212781A703B1C7A
:1017D00043333A1C433212781A705CE03B1C4D33A1
:1017E00001221A703B6801333B603B1C6B333A1C8F
:1017F0006B3212781A703B1C4E333A1C4E32127800
:101800001A703B1C4C333A1C4C3212781A703B1C39
:1018100043333A1C433212781A703CE03B1C4C3381
:1018200001221A703B6801333B603B1C6B333A1C4E
:101830006B3212781A703B1C4E333A1C4E321278BF
:101840001A703B1C4D333A1C4D3212781A703B1CF7
:1018500043333A1C433212781A701CE03B1C43336A
:1018600001221A703B1C6B333A1C6B3212781A70CF
:101870003B1C4E333A1C4E3212781A703B1C4D33CF
:101880003A1C4D3212781A703B1C4C333A1C4C32C5
:1018900012781A70C0463B681B78002B06D03B1CA0
:1018A00043331B785BB2002B00D127E70023FB6595
:1018B0003B681B785BB22A2B0CD19821C9190B68A5
:1018C0001A1D9821C9190A601B68FB653B68013322
:1018D0003B6018E00DE0FA6D131C9B009B185B0049
:1018E0001A1C3B68591C39601B785BB2D318303B1B
:1018F000FB653B681B785BB22F2B04DD3B681B78D4
:101900005BB2392BE7DD01235B423B663B681B780A
:101910005BB22E2B34D100233B663B6801333B6026
:101920003B681B785BB22A2B0CD19822D219136822
:101930001A1D9821C9190A601B683B663B68013370
:101940003B601DE012E0C046FFFFFF7F4CFE000041
:101950003A6E131C9B009B185B001A1C3B68591CB9
:1019600039601B785BB2D318303B3B663B681B7811
:101970005BB22F2B04DD3B681B785BB2392BE7DDB4
:101980003B1C10333B673B685A1C3A601B785BB2C8
:101990007B677B6F002B17D1FB6B0133FB637A688E
:1019A000FB6B9A4206DDFA68BB682520111C98473C
:1019B000031CBB63BB6B013303D101235B4200F00B
:1019C00096FEFB6B00F093FE7B6F682B04D06C2BB4
:1019D00017D04C2B2AD032E000237B643B685A1C82
:1019E0003A601B785BB27B677B6F682B08D1012361
:1019F0007B643B685A1C3A601B785BB27B671EE0D5
:101A00001DE002237B643B685A1C3A601B785BB282
:101A10007B677B6F6C2B08D103237B643B685A1C6C
:101A20003A601B785BB27B6709E008E004237B64C3
:101A30003B685A1C3A601B785BB27B67C0463B1C14
:101A40004F3300221A703B1C423300221A700023CD
:101A5000FB667B6F433B352B00D93DE39A00DE4BA1
:101A6000D3181B689F469822D21913681A1D982113
:101A7000C9190A601B68DAB23B1C10331A703B1C90
:101A800010331B78002B06D1FB6E0133FB663B1C29
:101A9000493301221A703B1C103300225A70002374
:101AA0003B663B1C6B3320221A703B1C4C330022DC
:101AB0001A7028E39822D21913681A1D9821C9199F
:101AC0000A601B683B673B1C6B3320221A703B1C6F
:101AD0004C3300221A7016E33B1C423301221A7069
:101AE0003B6E002B03DD3B1C4B3301221A703B1C69
:101AF00042331B785BB2002B00D1ADE07B6C032B33
:101B00003DD19822D21913680733072293431A1C38
:101B100008329821C9190A605C681B68BB67FC67BA
:101B2000BA6FFB6F13435A425341DAB23B1C4A333C
:101B30001A70FB6F002B0BDA3B1C57332D221A70E7
:101B4000B96FFA6F00244B429441BB67FC67FDE01C
:101B50003B1C4E331B785BB2002B04D03B1C57332D
:101B60002B221A70F2E03B1C4D331B785BB2002B2A
:101B700000D1EBE03B1C573320221A70E6E07B6C6F
:101B8000002B0DD19822D21913681A1D9821C9195A
:101B90000A601B689BB21BB28422D21913602AE030
:101BA0007B6C012B0DD19821C9190B681A1D982146
:101BB000C9190A601B68DBB25BB28422D2191360B8
:101BC00019E07B6C022B0BD19821C9190B681A1DE7
:101BD0009821C9190A601B688422D21913600AE08F
:101BE0009821C9190B681A1D9821C9190A601B6828
:101BF0008422D21913608421C9190B685A425341B7
:101C0000DAB23B1C4A331A708422D2191368002BB3
:101C10000BDA3B1C57332D221A708421C9190B682B
:101C20005B428422D219136090E03B1C4E331B7838
:101C30005BB2002B04D03B1C57332B221A7085E07B
:101C40003B1C4D331B785BB2002B00D17EE03B1C6C
:101C5000573320221A7079E07B6C002B15D1982124
:101C6000C9190B681A1D9821C9190A601B689BB213
:101C70008422D21913608421C9190B685A42534136
:101C8000DAB23B1C4A331A7060E07B6C012B15D131
:101C90009822D21913681A1D9821C9190A601B6865
:101CA000DBB28422D21913608421C9190B685A420D
:101CB0005341DAB23B1C4A331A7047E07B6C022B6B
:101CC00014D19822D21913681A1D9821C9190A60D3
:101CD0001B688422D21913608421C9190B685A42E7
:101CE0005341DAB23B1C4A331A702FE07B6C032B52
:101CF00018D19822D21913680733072293431A1C6C
:101D000008329821C9190A605C681B68BB67FC67C8
:101D1000BA6FFB6F13435A425341DAB23B1C4A334A
:101D20001A7013E09822D21913681A1D9821C91944
:101D30000A601B688422D21913608421C9190B68B8
:101D40005A425341DAB23B1C4A331A7000233B65B6
:101D50007B6C032B46D10AE0B96FFA6F1D4C1C4B0C
:101D60005B185441BB67FC673B6D01333B65FB6F00
:101D7000002BF1DB3B6F5A1C3B1C4F331B785BB2D3
:101D8000591E8B41D9B2BB6FFC6F0091181C211CEE
:101D9000142300F057FD3B6F01333A6F0132117885
:101DA0003A6DD2B28A18D2B21A703B6F01331B78E7
:101DB000392B13D93B6F01333A6F013212780A3A4B
:101DC000D2B21A703B6F31221A7034E0C046C0465E
:101DD00000009C584C491FF290FE00003B6F0133FD
:101DE0003B6728E00AE08422D2191368D0495B18C7
:101DF0008422D21913603B6D01333B658421C919DC
:101E00000B68002BEFDB3B1C4F331B785BB25A1E79
:101E10009341DBB28422D21911683A6F081C111C5D
:101E20000A2200F069FC3B6F1A783B6DDBB2D318D5
:101E3000DAB23B6F1A703B1C4C3300221A7062E11D
:101E40003B6E002B03DD3B1C4B3301221A707B6C75
:101E5000032B28D19821C9190B6807330722934314
:101E60001A1C08329821C9190A605C681B68BB6794
:101E7000FC67BA6FFB6F13435A425341DAB23B1C03
:101E80004A331A703B1C4F331B785BB25A1E934186
:101E9000D9B2BB6FFC6F3A6F0091181C211C16233E
:101EA00000F0D0FC52E07B6C002B0CD19822D219B0
:101EB00013681A1D9821C9190A601B689BB28422F5
:101EC000D219136029E07B6C012B0CD19821C91920
:101ED0000B681A1D9821C9190A601B68DBB284229D
:101EE000D219136019E07B6C022B0BD19821C91910
:101EF0000B681A1D9821C9190A601B688422D2191F
:101F000013600AE09821C9190B681A1D9821C91994
:101F10000A601B688422D21913608421C9190B68D6
:101F20005A425341DAB23B1C4A331A703B1C4F33BE
:101F30001B785BB25A1E9341DBB28422D21911681E
:101F40003A6F081C111C0B2200F0D6FB3B1C4833D7
:101F500003221A70D7E03B1C4F3301221A70002372
:101F6000BB659821C9190B681A1D9821C9190A6007
:101F70001B683B63396B3B1C4F331B785BB25A1EAB
:101F80009341DBB23A6F081C111C082200F0B4FB2D
:101F9000B9E03B1C4F3301221A703B1C483301222D
:101FA0001A703B6E002B03DD3B1C4B3301221A7071
:101FB0003B1C48331A783B1C483301321A707B6C47
:101FC000032B28D19822D219136807330722934391
:101FD0001A1C08329821C9190A605C681B68BB6723
:101FE000FC67BA6FFB6F13435A425341DAB23B1C92
:101FF0004A331A703B1C4F331B785BB25A1E934115
:10200000D9B2BB6FFC6F3A6F0091181C211C1023D2
:1020100000F018FC77E07B6C002B0CD19822D219D1
:1020200013681A1D9821C9190A601B689BB2842283
:10203000D219136029E07B6C012B0CD19821C919AE
:102040000B681A1D9821C9190A601B68DBB284222B
:10205000D219136019E07B6C022B0BD19821C9199E
:102060000B681A1D9821C9190A601B688422D219AD
:1020700013600AE09821C9190B681A1D9821C91923
:102080000A601B688422D21913608421C9190B6865
:102090005A425341DAB23B1C4A331A703B1C4F334D
:1020A0001B785BB25A1E9341DBB28422D2191168AD
:1020B0003A6F081C111C082200F01EFB23E0982137
:1020C000C9190B681A1D9821C9190A601B683B675A
:1020D0003B6FFA6B1A6008E3FB6B0133FB637A68B2
:1020E000FB6B9A4207DD796FFA68BB68081C111C0C
:1020F0009847031CBB63BB6B013302D101235B42D6
:10210000F5E2FB6BF3E202E0FB6E0133FB66FB6E74
:102110003A6FD3181B78002BF6D1FB6D002B01DA38
:102120000023FB653B6E002B04DA00233B660DE0C9
:10213000003665C47B6F732B02D07B6F532B05D1A8
:10214000FA6E3B6E9A4201DD3B6EFB660023BB6577
:102150003B6E002B03D1FB6D002B00D173E03B1CC9
:102160004B331B785BB2002B13D13B6E002B10D08E
:10217000FA6E3B6E9A420CDD3B1C10333A6F9A426A
:1021800005D1FA6E3B6ED31A3A6FD3183B673B6E9C
:10219000FB663B1C4B331B785BB2002B2CD0FA6DDB
:1021A0003B6E9A4225DD3A6EFB6E9A4203DDFA6D74
:1021B0003B6ED31A02E0FA6DFB6ED31ABB653B1C73
:1021C0004A331B785BB2002B1DD13B1C4C331B7870
:1021D0005BB2002B17D03B1C48331B785BB2032B40
:1021E00011D13A6EFB6E9A420DDDBB6D0133BB65BA
:1021F00009E00023BB6506E0FB6D002B03D0FA6D00
:10220000FB6ED31ABB653B1C57331B78002B02D0E7
:10221000BB6D013BBB653B1C4C331B785BB2002B99
:1022200011D03B1C4A331B785BB2002B0BD1BB6D2A
:10223000013BBB653B1C48331B785BB2022B02DCC5
:10224000BB6D013BBB65BB6D002B01DA0023BB6599
:102250007B6E002B00D07EE13B1C4B331B785BB2C6
:10226000002B00D189E07A68FB6BD31AF968BA6851
:10227000B86D0090081C111C1A1C2023FFF736F9BA
:10228000031CFA6BD318FB633B1C57331B782B2BB7
:1022900009D03B1C57331B782D2B04D03B1C5733E4
:1022A0001B78202B10D17A68FB6BD21A3B1C57335A
:1022B0001B78F868B9685BB201240094FFF716F93F
:1022C000031CFA6BD318FB633B1C4C331B785BB2CB
:1022D000002B3ED03B1C4A331B785BB2002B38D11D
:1022E0003B1C48331B785BB2012B02D0022B0DD074
:1022F00019E07A68FB6BD21AF868B968BD4BFFF732
:1023000027F9031CFA6BD318FB6322E07A68FB6B96
:10231000D21AF868B968B84BFFF71AF9031CFA6BC0
:10232000D318FB6315E03A6EFB6ED31A002B10DC5A
:102330007A68FB6BD31AF968BA6801200090081C10
:10234000111C1A1C3023FFF7D1F8031CFA6BD318A9
:10235000FB637A68FB6BD31A396EFA6E881AF968D8
:10236000BA680090081C111C1A1C3023FFF7BEF835
:10237000031CFA6BD318FB6374E13B1C6B331B78B3
:102380005BB2302B00D071E03B1C57331B782B2BFA
:1023900009D03B1C57331B782D2B04D03B1C5733E3
:1023A0001B78202B10D17A68FB6BD21A3B1C573359
:1023B0001B78F868B9685BB201240094FFF796F8BF
:1023C000031CFA6BD318FB633B1C4C331B785BB2CA
:1023D000002B39D03B1C4A331B785BB2002B33D126
:1023E0003B1C48331B785BB2012B02D0022B0DD073
:1023F00019E07A68FB6BD21AF868B9687D4BFFF771
:10240000A7F8031CFA6BD318FB631DE07A68FB6B1B
:10241000D21AF868B968784BFFF79AF8031CFA6B80
:10242000D318FB6310E07A68FB6BD31AF968BA68BB
:1024300001200090081C111C1A1C3023FFF756F8CD
:10244000031CFA6BD318FB637A68FB6BD21AF8682B
:10245000B9683B1C6B331B785BB2BC6D0094FFF713
:1024600045F8031CFA6BD318FB63FBE07A68FB6B3F
:10247000D21AF868B9683B1C6B331B785BB2BC6D31
:102480000094FFF733F8031CFA6BD318FB633B1C73
:1024900057331B782B2B09D03B1C57331B782D2B24
:1024A00004D03B1C57331B78202B10D17A68FB6B70
:1024B000D21A3B1C57331B78F868B9685BB2012409
:1024C0000094FFF713F8031CFA6BD318FB633B1C53
:1024D0004C331B785BB2002B00D1C3E03B1C4A336A
:1024E0001B785BB2002B00D0BCE03B1C48331B7850
:1024F0005BB2012B02D0022B0DD019E07A68FB6B86
:10250000D21AF868B9683B4BFFF722F8031CFA6B44
:10251000D318FB631EE07A68FB6BD21AF868B968BF
:10252000354BFFF715F8031CFA6BD318FB6311E06A
:102530007A68FB6BD31AF968BA6801200090081C0E
:10254000111C1A1C3023FEF7D1FF031CFA6BD318A1
:10255000FB6387E086E03B1C57331B782B2B09D0AD
:102560003B1C57331B782D2B04D03B1C57331B7857
:10257000202B10D17A68FB6BD21A3B1C57331B7887
:10258000F868B9685BB201240094FEF7AFFF031C42
:10259000FA6BD318FB633B1C4C331B785BB2002BEC
:1025A00047D03B1C4A331B785BB2002B41D13B1C0C
:1025B00048331B785BB2012B02D0022B0DD01DE0FB
:1025C0007A68FB6BD21AF868B9680A4BFEF7C0FF4D
:1025D000031CFA6BD318FB632BE07A68FB6BD21AEF
:1025E000F868B968044BFEF7B3FF031CFA6BD31805
:1025F000FB631EE008EE00000CEE00003B1C4B33BA
:102600001B785BB2002B03D03A6EFB6ED31A10D549
:102610007A68FB6BD31AF968BA6801200090081C2D
:10262000111C1A1C3023FEF761FF031CFA6BD31830
:10263000FB633B1C4B331B785BB2002B12D07A68D8
:10264000FB6BD31A396EFA6E881AF968BA68009073
:10265000081C111C1A1C3023FEF748FF031CFA6BE0
:10266000D318FB63FB6E0133FB667A68FB6BD21AEF
:10267000FB6E9A4203DA7A68FB6BD31AFB663B1C4B
:1026800049331B785BB2002B0FD03B6F1B78DBB25A
:10269000F868B968FA6E5BB201240094FEF726FF71
:1026A000031CFA6BD318FB6309E0F868B968FA6E8B
:1026B0003B6FFEF74DFF031CFA6BD318FB637B6E79
:1026C000002B12D07A68FB6BD31AF968BA68B86D20
:1026D0000090081C111C1A1C2023FEF707FF031C86
:1026E000FA6BD318FB63FEF78CFFFEF78AFF181C0A
:1026F000BD4623B090BDC04680B58AB000AFF8603B
:10270000B9607A601A1CFB1C1A703B1C143300223F
:102710001A707B680B2B24D101237B6212E0FB68CB
:10272000DAB207231340DBB23033DBB2DAB2391C42
:1027300014317B6ACB181A70FB68DB10FB607B6A74
:1027400001337B627A6A7B689A42E8DD3B1C143372
:10275000DB7A1A1C33231340DAB23B1C1433DA72CF
:1027600044E07B680A2B20D101237B6218E0FB68E0
:10277000181C0A21FEF734F80B1CDBB23033DBB235
:10278000DAB2391C14317B6ACB181A70FB68181C3A
:102790000A21FDF7CFFF031CFB607B6A01337B62DC
:1027A0007A6A7B689A42E2DD20E001237B6219E0CD
:1027B000FB1C1B78002B05D0FA680F2313401F4A1F
:1027C000D35C04E0FA680F2313401D4AD35C391C24
:1027D00014317A6A8A181370FB681B11FB607B6ADC
:1027E00001337B627A6A7B689A42E1DD7B687B62B7
:1027F00002E07B6A013B7B623A1C14327B6AD3188D
:102800001B785BB2302BF4D07B6A002B03D17B6A40
:1028100001337B620BE00AE0BB685A1CBA607A6A3B
:10282000511E7962391C14318A5CD2B21A707B6AEB
:10283000002BF1DABD460AB080BDC04668FF00003B
:102840007CFF0000B0B590B000AF38617961FA60EC
:10285000BB603B1C1C3300221A70BB68162B2BD1AB
:102860000123FB6319E03B697C69DAB2072313405B
:10287000DBB23033DBB2DAB2391C1C31FB6BCB1864
:102880001A707B695B073A69D20813433B617B6925
:10289000DB107B61FB6B0133FB63FA6BBB689A4215
:1028A000E1DD3B1C1C339B7D1A1C31231340DAB243
:1028B0003B1C1C339A7563E0BB68142B29D10123A0
:1028C000FB6321E03B697C69181C211C0A22002360
:1028D000FDF792FF1C1C131CDBB23033DBB2DAB203
:1028E000391C1C31FB6BCB181A703B697C69181CB6
:1028F000211C0A220023FDF77FFF031C0C1C3B61F7
:102900007C61FB6B0133FB63FA6BBB689A42D9DDD8
:1029100036E00123FB632FE03B1C50331B78002B78
:102920000BD03A690F23141C1C407A690023151C34
:102930001D40274B1B191B780DE03A690F23111C12
:10294000194039607A690023111C19407960214BC4
:102950003A689B181B78391C1C31FA6B8A18137063
:102960007B691B073A69120913433B617B691B11A1
:102970007B61FB6B0133FB63FA6BBB689A42CBDD77
:10298000BB68FB6302E0FB6B013BFB633A1C1C3240
:10299000FB6BD3181B785BB2302BF4D0FB6B002B96
:1029A00003D1FB6B0133FB630BE00AE0FB685A1CAD
:1029B000FA60FA6B511EF963391C1C318A5CD2B281
:1029C0001A70FB6B002BF1DABD4610B0B0BDC046EB
:1029D00068FF00007CFF000080B584B000AF786025
:1029E00039607B68DAB23B1C0B331A703B68002BF2
:1029F00002D101235B4217E03A1C0B323B68101CEA
:102A000001211A1CFEF7A8FC031CFB60FB68002BCD
:102A100009DA3B681B688022D2021A433B681A60BD
:102A200001235B4200E07B68181CBD4604B080BDFA
:102A300080B500AFBD4680BD80B500AFBD4680BD4E
:102A400080B582B000AF78607B68181C03F0F4FC9E
:102A5000031C181CBD4602B080BDC04680B582B0C4
:102A600000AF78607B68181C03F0F8FBBD4602B02D
:102A700080BDC04680B500AFC046BD4680BDC046E3
:102A800080B500AF054B181C09F0B0FC09F0F6FC4E
:102A9000FEF720FB031C181C09F0B6FC29C400003B
:102AA00080B582B000AF786072B6FEE780B582B0C4
:102AB00000AF786001235B42181CFFF7F1FF002391
:102AC000181CBD4602B080BD80B500AF024B9B68AC
:102AD000181CBD4680BDC04600ED00E080B584B046
:102AE00000AF786039607A683B68101C191C03F0ED
:102AF00003F9031CFB60FB68181CBD4604B080BDD5
:102B0000B0B588B000AF786139613B6900229A6046
:102B1000314B1B68012B0FD1304B1B687869191C96
:102B2000FDF7BAFD031C3B6000237B603B693968FD
:102B30007A6819605A6045E0294B1B68FB61264B97
:102B40001B68022B1ED17B691C1C00231D1CFA690B
:102B5000BE235B00D358BB600023FB60201C291CF4
:102B6000BA68FB68FDF78CFE031C0C1C181C211CAA
:102B7000184B174AFDF764FE031C0C1C3A691360DE
:102B800054601FE0FA69BE235B00D358FA2290001C
:102B9000191CFDF781FD031C1A1C104B1A60FA6901
:102BA000BE235B00D2580D4B1B685A43FA239B008F
:102BB0009A4203D1084B01221A60ADE7064B02226C
:102BC0001A60C0E7BD4608B0B0BDC046C046C046AA
:102BD000E803000000000000F0FAFF1FF4FAFF1FF6
:102BE00074F2FF1FC046C046F0B5474680B484B0BB
:102BF00000AFF860B9607A60FB6819685A68BB6812
:102C00005C681B685B1854417A6813605460FB6809
:102C10009E68BB689D68114B1A68C2235B00D1583F
:102C200088464246531BB3420FD87B6819685A68DE
:102C3000012300245B1854417A68136054604146B4
:102C40006B1A9A197B689A6002E072197B689A6025
:102C5000BD4604B004BC9046F0BDC04674F2FF1FF0
:102C6000F0B5474680B484B000AF7860164B1B685F
:102C7000FB60FA68C2235B00D6587B689B68B3424E
:102C80001DD37B689B68181C311CFDF705FD031CD8
:102C900098467B681A685B68444600210D1C101C2E
:102CA000191C00196941031C0C1C7A6813605460DC
:102CB0007B689A6843467343D21A7B689A60BD4624
:102CC00004B004BC9046F0BD74F2FF1F80B586B01E
:102CD00000AF244B1B68FB60FB689133FF33BB6084
:102CE000BB685B697B617B69072B05D907237B6127
:102CF000BB6807225A6107E07B69002B04D10123DE
:102D00007B61BB6801225A617B699BB29B019AB2CD
:102D1000FF2313409AB2FB68DA8200233B6108E08C
:102D2000114B3A69C03292008021D1503B69013386
:102D30003B613B69072BF3D90C4B7B6000233B6164
:102D400009E03B699B007A68D318012252421A605D
:102D50003B6901333B613B69002BF2D0BD4606B0B5
:102D600080BDC04674F2FF1F00E100E080E100E09A
:102D700080B584B000AF2F4B1B687B607B6800225E
:102D80001A627A6880235B00D35803333B603B6848
:102D90001B01181C03F0CEF9031CFB60FB68002B21
:102DA00001D1042341E0FB68181C052103F0EEFB70
:102DB0003B68BB602FE0FB68FA681A60FB68FA6842
:102DC0005A60BB689AB2FB68DA817A68D2235B00EA
:102DD000D258BB68D318032B10D87A68D2235B0073
:102DE000D3589AB2BB689BB2D3189BB29B019AB2DC
:102DF000FF2313409AB2FB689A8102E0FB6800222D
:102E00009A817B681A6AFB689A60FA68131C10330F
:102E1000FB607B681A62BB685A1EBA60002BCAD17D
:102E20007B681A6A7B685A620023181CBD4604B08E
:102E300080BDC04674F2FF1F80B588B000AFF86057
:102E4000B9607A603B603B1C1F3301221A707B68BB
:102E5000013BBA68D3180F229343BB61BB695C3B4B
:102E60007B61FB68BA691A61BB680F330F22934319
:102E70001A1CFB689A61FB687A695A617B69181CA5
:102E800000215C2209F060FB0C4A7B699A637B6934
:102E9000FA6A5A623B685B6801221A437B69DA630B
:102EA0007B69802252041A647B69FA6A1A653B1CAA
:102EB0001F331B78181CBD4608B080BD8977000001
:102EC00080B582B000AF7860BD4602B080BDC0461C
:102ED00090B583B000AF114B1B68002B06D1104991
:102EE000104A114B081C352109F062FA0B4B1B6884
:102EF0001A1DFC1D01235B42101C191C06F0AEF8C4
:102F0000031C2370FB1D1B78002B01D1002301E063
:102F100001235B42181CBD4603B090BDD0FFFF1FCC
:102F200010EE000090FF000054EE000090B583B05A
:102F300000AF104B1B68002B06D10F490F4A104BF6
:102F4000081C3D2109F034FA0A4B1B680433FC1DB0
:102F5000181C06F0B3F8031C2370FB1D1B78002B14
:102F600001D1002301E001235B42181CBD4603B0E0
:102F700090BDC046D0FFFF1F10EE0000A0FF000074
:102F800054EE000090B583B000AFFC1D0A4A012347
:102F90005B42101C191C06F061F8031C2370FB1D1A
:102FA0001B78002B01D1002301E001235B42181C98
:102FB000BD4603B090BDC046D8FFFF1F90B583B09B
:102FC00000AFFC1D084B181C06F078F8031C23709A
:102FD000FB1D1B78002B01D1002301E001235B4284
:102FE000181CBD4603B090BDD8FFFF1F90B585B03B
:102FF00000AF78607B681A1C0C323C1C0F34012334
:103000005B42101C191C06F029F8031C23703B1CA2
:103010000F331B78002B01D1002301E001235B4219
:10302000181CBD4605B090BD90B585B000AF786066
:103030007B680C333C1C0F34181C06F03FF8031C53
:1030400023703B1C0F331B78002B01D1002301E0C0
:1030500001235B42181CBD4605B090BD90B585B0FC
:1030600000AF78607B68002B06D11049104A114BE5
:10307000081C642109F09CF97B681A1C0C323C1C6A
:103080000F3401235B42101C191C05F0E7FF031CE1
:1030900023703B1C0F331B78002B01D1002301E070
:1030A00001235B42181CBD4605B090BD10EE000028
:1030B000B0FF000068EE000090B585B000AF78600A
:1030C0007B68002B06D10E490E4A0F4B081C6C2161
:1030D00009F06EF97B680C333C1C0F34181C05F0AA
:1030E000EDFF031C23703B1C0F331B78002B01D119
:1030F000002301E001235B42181CBD4605B090BDD2
:1031000010EE0000B8FF000068EE000080B584B04B
:1031100000AF78600023FB607B68002B0CDB7A68D3
:10312000084B1B681B689A4206D2064B1B687A68DC
:1031300008329200D358FB60FB68181CBD4604B0EF
:1031400080BDC046D0FFFF1F80B582B000AF002316
:103150007B6002E07B6801337B607A680D4B1B6803
:103160001B689A4207D20B4B1B687A6808329200A0
:10317000D358002BEED17A68064B1B681B689A4225
:1031800001D27B6801E001235B42181CBD4602B0FE
:1031900080BDC046D0FFFF1F80B582B000AF786011
:1031A000054B1B687A68083292000021D150002339
:1031B000181CBD4602B080BDD0FFFF1F80B584B093
:1031C00000AF78600023FB600FE07A68FB68D318DB
:1031D0001B78002B0CD07A68FB68D3181B785BB285
:1031E0003A2B05D0FB680133FB60FB68132BECD94D
:1031F000FB68002B02D0FB68142B02D101235B4239
:1032000000E00023181CBD4604B080BD80B586B028
:1032100000AF786000237B61274B1B683B617B68B4
:10322000002B01D1002342E03AE00023FB6002E0E2
:10323000FB680133FB603A69FB68D3181A78FB68B6
:103240007968CB181B7852B25BB29A420FD1FB68F7
:10325000132B0CDCFB687A68D3181B785BB23A2B13
:1032600005D0FB687A68D3181B78002BE0D1FB6887
:103270007A68D3181B785BB23A2B05D0FB687A6862
:10328000D3181B78002B08D13A69FB68D3181B7838
:10329000002B02D13B697B6108E03B699B693B6184
:1032A0007B69002B02D13B69002BBED17B69181CC6
:1032B000BD4606B080BDC046D4FFFF1F80B584B0B8
:1032C00000AF78607B68181CFFF7A0FF031CFB6051
:1032D000FB68002B02D0FB685B6900E00023181C30
:1032E000BD4604B080BDC04680B584B000AF7860F4
:1032F00039607B68002B03D07B681B78002B02D1E0
:1033000001235B4241E01C2006F006F8031CBB6071
:10331000BB68002B32D00023FB6017E0FB687A68A3
:10332000D3181B785BB23A2B19D0FB687A68D31894
:103330001B78002B13D0FB687A68D3181A78B96809
:10334000FB68CB181A70FB680133FB60FB68132B1A
:1033500005DCFB687A68D3181B78002BDED1BA68CD
:10336000FB68D31800221A70BB683A685A61094B8F
:103370001A68BB689A61074BBA681A60BB68002B71
:1033800001D0002301E001235B42181CBD4604B0BC
:1033900080BDC046D4FFFF1F80B584B000AF786009
:1033A0000023BB60174B1B68FB6004E0FB68BB603D
:1033B000FB689B69FB60FB68002B04D0FB685A69C3
:1033C0007B689A42F2D1FB68002B0FD0BB68002BC0
:1033D00004D0FB689A69BB689A6103E0FB689A694C
:1033E000084B1A60FB68181C05F0B2FFFB68002B45
:1033F00001D0002301E001235B42181CBD4604B04C
:1034000080BDC046D4FFFF1F80B582B000AF78609A
:1034100039607B681A683B689A623B687A68DA624E
:103420003B689B6A002B04D03B689B6A3A68283251
:10343000DA627B683A681A600023181CBD4602B045
:1034400080BDC04680B582B000AF78607B689B6A63
:10345000002B04D07B689B6A7A68D26ADA627B6848
:10346000DB6A002B04D07B68DB6A7A68926A1A6098
:103470000023181CBD4602B080BDC04680B586B092
:1034800000AF7860396000237B617A68131C5B00B1
:103490009B181B012033181C05F03EFF021C394B02
:1034A0001A60384B1B68002B55D0374B1B683B61AB
:1034B000344B19683A69C8239B00D150314B1B68C3
:1034C0007A681A60314B00221A60314B181C0121B6
:1034D00005F0AEFD031C002B0FD00C237B612A4BA3
:1034E0001B68FB60FA68C8239B000021D150254B64
:1034F0001B68181C05F02CFF2CE0224B1B680433C2
:10350000181C012105F094FD031C002B13D00C2383
:103510007B611D4B1B68BB60BA68C8239B00002100
:10352000D1501B4B181C05F0D9FD164B1B68181CFD
:1035300005F00EFF0EE0134B1B68191C20317A6852
:10354000131C5B009B181B01081C00211A1C08F0AF
:10355000FBFF02E001E00C237B617B69002B05D0BF
:103560003B68002B02D03B687A691A607B69002BAC
:1035700002D001235B4200E00023181CBD4606B0C8
:1035800080BDC046D0FFFF1F74F2FF1FD4FFFF1F96
:10359000D8FFFF1F80B586B000AFF860B9607A60D1
:1035A0003B6000237B6100233B61FB68181CFFF735
:1035B00005FE031C002B00D08DE0FB68181CFFF7F4
:1035C0007DFE031C7B617B69002B00D07CE02C20FE
:1035D00005F0A2FE031C7B617B69002B6DD07B692B
:1035E000BA681A607B6900229A627B6900229A603D
:1035F0007B6900225A607B690C33181C012105F09D
:1036000017FD031C002B0BD03B68002B02D03B683E
:103610000C221A607B69181C05F09AFE002361E0F9
:103620007B691B689B69002B09D07B691B689B69C0
:103630007A69111D78683A689847031C3B613B69B9
:10364000002B4ED1FFF79EFCFA687B69101C191CF9
:10365000FFF74AFE031C3B61FFF7B0FC3B69002B00
:103660003FD07B691B68DB69002B14D07B691B682A
:10367000DB697A690432101C00219847031C3B6106
:103680003B69002B07D019489623191CFF31184AB3
:10369000184B08F08DFE7B690C33181C05F01EFDDD
:1036A0007B69181C05F054FE00237B613B68002BEE
:1036B00017D03B680C221A6013E03B68002B10D037
:1036C0003B680C221A600CE03B68002B09D03B6879
:1036D00011221A6005E03B68002B02D03B681622DD
:1036E0001A607B69181CBD4606B080BD10EE000054
:1036F000C4FF000074EE000080B586B000AF7860B3
:1037000039600023FB60FFF73DFC7B68181CFFF766
:10371000D5FD031C7B617B69002B2CD07B69181CB9
:10372000FFF73AFEFFF74AFC01E005F057FC7B6922
:103730009B68002BF9D17B691B68DB69002B10D0DB
:103740007B691B68DA697B6959683B1C0C33081C70
:10375000191C9047031C3B613B69002B01DB0023D4
:10376000FB607B690C33181C05F0B8FC7B69181CE6
:1037700005F0EEFD03E01123FB60FFF71FFCFB6883
:10378000002B05D03B68002B02D0FA683B681A601A
:10379000FB68002B02D001235B4200E00023181CD1
:1037A000BD4606B080BDC046B0B58AB002AFF86075
:1037B000B9607A603B6001235B42FB610023BB611F
:1037C000FFF786FBFFF7C0FC031CFB61FB69002BC6
:1037D00009DAFFF7ABFB3B6B002B02D03B6B1722E8
:1037E0001A60FB6999E0302005F096FD031C7B61AF
:1037F0007B69002B33D07B6900221A607B69002231
:103800005A607B6900229A607B6900229A627B6918
:103810000022DA627B690C33181C012105F008FCD8
:10382000031C002B0ED03B6B002B02D03B6B0C22F9
:103830001A60FFF77BFB7B69181C05F089FD0123EB
:103840005B426AE0374B1B68FA690832920079697B
:10385000D150FFF76BFBFB68002B54D00AE0FFF759
:1038600065FB3B6B002B02D03B6B0C221A600123E3
:103870005B4252E0FB681B681B68002B39D0FB6879
:103880001B681C68FB685868B9687A683B1C103371
:103890003D6B0095A047031CBB61BB69002B19D091
:1038A000FFF716FB1F4B1B68FA69083292000021D4
:1038B000D150FFF73BFB7B690C33181C05F00EFC65
:1038C0007B69181C05F044FD00237B6101235B42EA
:1038D000FB6121E07B69FA681A603A697B695A608A
:1038E000FB681A1C28327B69101C191CFFF78CFD21
:1038F00012E001235B42FB613B6B002B0CD03B6B66
:103900002D221A6008E001235B42FB613B6B002B18
:1039100002D03B6B11221A60FB69181CBD4608B02F
:10392000B0BDC046D0FFFF1F90B58BB002AFF860AE
:10393000B9607A6001235B42FB610023BB61FFF742
:1039400021FBFB68181CFFF7B9FC031C7B617B693A
:10395000002B21D07B69181CFFF748FB7B699B6813
:103960005A1C7B699A60FFF729FB7869F968BA6885
:10397000BB697C680094FFF717FF031CFB61FB69C0
:10398000002B04DA7B699B685A1E7B699A607B690D
:10399000181CFFF749FB07E07B68002B02D07B680F
:1039A00002221A60FFF70AFBFB69181CBD4609B02A
:1039B00090BDC04690B587B000AF786039600123F4
:1039C0005B427B61FFF784FA7B68181CFFF79EFB64
:1039D000031C3B613B69002B0CD1FFF7A7FA3B6846
:1039E000002B03D03B6809221A6001E000237B61B1
:1039F0007B695AE03B69181CFFF730FB3B691B6889
:103A0000FB603B6900221A603B699B685A1C3B695A
:103A10009A603B69181CFFF74FFB7B68181CFFF787
:103A2000BBFBFFF783FA01E005F0D8FA3B699B681E
:103A3000012BF9D8FB68002B2DD0FB681B685B6954
:103A4000002B0ED0FB681B685C69FB6859683B69FA
:103A50005A683B68081C111C1A1CA047031C7B6198
:103A600008E03B68002B02D03B682D221A6001233E
:103A70005B427B61FB68181CFFF7B8FAFB689B6828
:103A80005A1EFB689A603B69181CFFF7DBFCFB6859
:103A9000181CFFF7C9FA3B690C33181C05F01EFB14
:103AA0003B69181C05F054FC7B69181CBD4607B027
:103AB00090BDC046B0B58AB002AFF860B9607A6018
:103AC0003B6001235B42FB61FFF702FAFB68181CB5
:103AD000FFF71CFB031CBB61BB69002B09D1FFF77F
:103AE00025FA3B68002B02D03B6809221A60FB696B
:103AF00047E0BB691B68002B09D1FFF717FA3B6849
:103B0000002B02D03B6805221A60FB6939E0BB69D3
:103B1000181CFFF7A3FABB691B687B61BB699B6834
:103B20005A1CBB699A60BB69181CFFF7C5FAFFF7FE
:103B3000FDF97B691B685B68002B0ED07B691B68F5
:103B40005C687B695868BB695968BA687B683D687E
:103B50000095A047031CFB6105E03B68002B02D0E9
:103B60003B682D221A60BB69181CFFF777FABB6906
:103B70009B685A1EBB699A60BB69181CFFF79CFAC8
:103B8000FB69181CBD4608B0B0BDC046B0B58AB0D0
:103B900002AFF860B9607A603B6001235B42FB6171
:103BA000FFF796F9FB68181CFFF7B0FA031CBB611E
:103BB000BB69002B09D1FFF7B9F93B68002B02D094
:103BC0003B6809221A60FB6947E0BB691B68002B50
:103BD00009D1FFF7ABF93B68002B02D03B68052207
:103BE0001A60FB6939E0BB69181CFFF737FABB693B
:103BF0001B687B61BB699B685A1CBB699A60BB6987
:103C0000181CFFF759FAFFF791F97B691B689B684D
:103C1000002B0ED07B691B689C687B695868BB6968
:103C20005968BA687B683D680095A047031CFB6132
:103C300005E03B68002B02D03B682D221A60BB696F
:103C4000181CFFF70BFABB699B685A1EBB699A6088
:103C5000BB69181CFFF730FAFB69181CBD4608B099
:103C6000B0BDC046B0B58AB002AFF860B9607A6046
:103C70003B6001235B42FB61FFF72AF9FB68181CDC
:103C8000FFF744FA031CBB61BB69002B09D1FFF7A6
:103C90004DF9BB68002B02D0BB6809221A60FB6992
:103CA00047E0BB691B68002B09D1FFF73FF9BB68F0
:103CB000002B02D0BB6809221A60FB6939E0BB699E
:103CC000181CFFF7CBF9BB691B687B61BB699B685C
:103CD0005A1CBB699A60BB69181CFFF7EDF9FFF726
:103CE00025F97B691B681B69002B0ED07B691B685B
:103CF0001C697B695868BB695968BA687B683D680C
:103D00000095A047031CFB6105E0BB68002B02D0B7
:103D1000BB682D221A60BB69181CFFF79FF9BB69AD
:103D20009B685A1EBB699A60BB69181CFFF7C4F9EF
:103D3000FB69181CBD4608B0B0BDC0460EB480B5C6
:103D400087B000AF78607B6A7B6179687A693B1CD9
:103D50000C33081C111C1A1CFFF7E6FD031C3B6109
:103D60003B69002B04DA08F049FB031CFA681A606F
:103D70003B69181CBD4607B080BC08BC03B018479F
:103D800080B584B000AF78607A683B1C0833101CA3
:103D9000191CFFF70FFE031CFB60FB68002B04DA05
:103DA00008F02CFB031CBA681A60FB68181CBD469F
:103DB00004B080BD80B586B000AFF860B9607A60AD
:103DC000F868B9687A683B1C1033FFF7DFFE031C04
:103DD0007B617B69002B04DA08F010FB031C3A6955
:103DE0001A607B69181CBD4606B080BD80B588B0DE
:103DF00000AFF860B9607A603B60FB68002B06D1C9
:103E00002349244A244B081C4C2108F0D1FA3B6872
:103E1000002B06D11E491F4A204B081C4D2108F0DB
:103E2000C7FAFB68FB61082005F076FA031CBB614A
:103E3000FB69DB69002B18D1FA69FB695B69101C0F
:103E4000191C0022FFF770FD031C7B617B69002BAE
:103E500008DABB6A002B02D0BB6A09221A60012370
:103E60005B4211E0FB697A699A617A68BB691A6002
:103E7000BB6900221A71FB69DB695A1CFB69DA61B4
:103E80003B68BA691A600023181CBD4608B080BDA3
:103E90007CEE0000F8FF0000D4EE0000E8EE000029
:103EA00080B58CB000AFF860B9607A603B607B6829
:103EB000FB620023BB6200237B62FB68002B06D100
:103EC0004D494E4A4E4B081C722108F071FABB68EE
:103ED000002B06D14849494A4A4B081C732108F077
:103EE00067FAFB683B62BB68FB617B68002B08D10B
:103EF000BB6B002B02D0BB6B0E221A6001235B420E
:103F000075E03B6A9B69002B08DABB6B002B02D083
:103F1000BB6B09221A6001235B4268E062E03B6AE6
:103F200099693A1C1732BB6B081C111C0122FFF760
:103F3000C1FD031CBB61BB69012B08D0BB69013308
:103F400001D1BB6953E0BB69002B00D14EE0FB6996
:103F50001B79002B09D0FB6900221A713B1C173317
:103F60001B785BB20A2B00D13CE03B1C17331B785B
:103F70005BB20D2B1AD1FB6901221A71FB691A6819
:103F8000022313400ED0FB691A680123134009D0A5
:103F90003B6A9A693B1C1733101C191C0122002331
:103FA000FFF7F4FD3B1C17330A221A70FB691A68ED
:103FB0000223134009D03B6A9A693B1C1733101C3B
:103FC000191C01220023FFF7E1FDFB6A5A1CFA626B
:103FD0003A1C173212781A707B6A01337B62BB6A13
:103FE0000133BB62BA6A3B689A4298D37B6A181C59
:103FF000BD460CB080BDC0467CEE0000080001004C
:10400000D4EE0000E8EE000080B58AB000AFF860A2
:10401000B9607A603B607B68FB61FB697B62FB682F
:10402000002B06D139493A4A3A4B081CCB2108F0FB
:10403000BFF9BB68002B06D13449354A364B081C02
:10404000CC2108F0B5F9FB68BB61BB687B617B687C
:10405000002B08D13B6B002B02D03B6B0E221A6069
:1040600001235B424DE0BB699B69002B08DA3B6B87
:10407000002B02D03B6B09221A6001235B4240E017
:1040800000233B6238E07B691A680123134018D093
:104090007B6A1B785BB20A2B13D1BB6999691F4AF3
:1040A0003B6B081C111C0122FFF770FD031C3B61D8
:1040B0003B69002B01DA3B6923E03B69002B00D10F
:1040C0001EE0BB6999697A6A3B6B081C111C0122CE
:1040D000FFF75CFD031C3B613B69002B01DA3B6988
:1040E0000FE03B69002B01D13B6A0AE07B6A013398
:1040F0007B623B6A01333B623A6A3B689A42C2D3B5
:104100003B6A181CBD460AB080BDC0467CEE00006C
:1041100018000100D4EE0000E8EE0000FCEE000004
:1041200080B588B000AFF860B9607A603B60FB682A
:10413000002B07D126480823191CFF31254A264B9E
:1041400008F036F9BB68002B06D1214884235900BA
:10415000204A224B08F02CF9FB68BB61BB687B61ED
:10416000BB699B69002B08DA7B68002B02D07B6857
:1041700009221A6001235B4226E03B68802252013B
:10418000934204D08022920593420BD011E0BB6988
:104190009869796880235A01BB6AFFF763FD031CA5
:1041A000FB6110E0BB6A1A1DBA621A687B691A606B
:1041B00009E07B68002B02D07B6819221A6001237A
:1041C0005B42FB61C046FB69181CBD4608B080BD60
:1041D0007CEE000028000100D4EE0000E8EE0000B4
:1041E00080B586B000AFF860B9607A6000237B616B
:1041F000FB68002B06D1184897235900174A184B23
:1042000008F0D6F8FB683B613B699B69002B08DA34
:104210007B68002B02D07B6809221A6001235B4275
:1042200016E03B69DB695A1E3B69DA613B69DB6971
:10423000002B08DC3B699A697B68101C191CFFF78E
:10424000B9FB031C7B61BB68181C05F081F87B6916
:10425000181CBD4606B080BD7CEE00003800010091
:10426000D4EE000080B588B000AFF860B9607A6025
:10427000BB68002B07D127484E23191CFF31264A63
:10428000264B08F095F8BB68FB61FB68BB61BB6916
:10429000002B08D17B68002B02D07B6816221A60A5
:1042A00001235B4231E0BB691B687B617B69002BAA
:1042B00008D17B68002B02D07B6816221A6001238C
:1042C0005B4222E0202005F035F8031CFB61FB690E
:1042D000002B12D0FA697B69101C191C142208F0FB
:1042E00089F9BB695A68FB695A61FB690022DA6186
:1042F000BB68FA691A60002307E07B68002B02D0D4
:104300007B680C221A6001235B42181CBD4608B072
:1043100080BDC0467CEE000048000100D4EE0000E5
:1043200080B582B000AF786039607B68181C05F0FA
:104330000FF80023181CBD4602B080BDB0B582B096
:1043400000AF021C3960FB1D1A70FB1D1B787F2B10
:1043500032D93049FB1D1B781A1C0F231340083B30
:1043600098082C4AFB1D1B781C1C0F232340083B7C
:104370009B0806339B00D3185B68FA1D1278141C47
:1043800003222240D200FF24251C95402A1CD24340
:104390001A403B689C01FF231C40FB1D1B781D1C21
:1043A00003232B40DB00251C9D402B1C1A43831D3F
:1043B0009B00CB185A6029E0174BFA1D127852B2B5
:1043C00092081549F81D007840B28008C03080007E
:1043D0004158F81D0078041C03202040C000FF2431
:1043E000251C8540281CC043084039688C01FF21EA
:1043F0000C40F91D09780D1C03212940C900251C1A
:104400008D40291C0143C0329200D150BD4602B0FC
:10441000B0BDC04600ED00E000E100E080B582B034
:1044200000AF786039607B685A683B681A607B68C7
:104430009B7A082B02D0092B04D007E03B680022AE
:104440009A7106E03B6801229A7102E001235B4207
:1044500029E07B681B7A012B0BD0022B05D0002BA7
:104460000BD13B6800221A710AE03B6802221A71E4
:1044700006E03B6803221A7102E001235B4212E06E
:104480007B685B7A002B02D0012B04D007E03B68ED
:1044900000225A7106E03B6801225A7102E00123B2
:1044A0005B4200E00023181CBD4602B080BDC04640
:1044B00080B582B000AF786039607B685B69DAB242
:1044C0003B681A707B685A683B685A607B689B7AC5
:1044D000082B02D0092B04D007E03B6800229A7217
:1044E00006E03B6801229A7202E001235B4229E068
:1044F0007B681B7A012B0BD0022B05D0002B0BD134
:104500003B6800221A720AE03B6802221A7206E037
:104510003B6803221A7202E001235B4212E07B68CF
:104520005B7A002B02D0012B04D007E03B6800220D
:104530005A7206E03B6801225A7202E001235B4294
:1045400000E00023181CBD4602B080BD80B584B0D9
:1045500000AFF860B9607A603B600023181CBD466C
:1045600004B080BD90B591B000AFF860B9607A60DA
:104570003B60FB68002B06D1B249B34AB34B081C21
:10458000FD2107F015FFFB68BB63BB6B4C337B63FE
:104590000023FB633B68002B01D100234DE17B68C6
:1045A000002B08D13B6D002B02D03B6D16221A6008
:1045B00001235B4241E1BA6B3C1C333401235B4273
:1045C000101C191C04F0B4FD031C23703B1C333376
:1045D0001B78002B08D03B6D002B02D03B6D0522D1
:1045E0001A6001235B4228E103E17B6BDA68012357
:1045F00013401FD07B6BDB680122191C91430A1CFE
:104600007B6BDA60BB6B3C1C3334181C04F00CFE73
:10461000031C23703B1C33331B78002B08D03B6DED
:10462000002B02D03B6D05221A6001235B4204E19E
:10463000FB6B02E17B6B1B68FB627B6B5A68FB6A5E
:104640009A4235D83A68FB6BD31ABB627B6B5B68C6
:10465000FA6AD31A7B627A6ABB6A934200D9131C46
:104660003B627A68FB6BD318191C7B6B1A697B6BF6
:104670005B68D2183B6A081C111C1A1C07F022FF49
:104680007B6B5A683B6AD2187B6B5A607B6B5A68AB
:104690007B6B9B689A4206D36A48992359006A4A01
:1046A0006B4B07F085FEFA6B3B6AD318FB635DE04A
:1046B0003A68FB6BD31AFB617B6B9A687B6B5B6818
:1046C000D31ABB61BA69FB69934200D9131C7B61A1
:1046D0007A68FB6BD318191C7B6B1A697B6B5B6860
:1046E000D2187B69081C111C1A1C07F0EBFE7B6BAF
:1046F0005A687B69D2187B6B9B68101C191CFCF7ED
:104700000FF80B1C1A1C7B6B5A60FA6B7B69D31871
:10471000FB63FA697B69D31AFB61FB69002B25D027
:10472000FA6AFB69934200D9131C7B617A68FB6BC0
:10473000D318191C7B6B1A697B69081C111C1A1C85
:1047400007F0C0FE7B6B7A695A607B6B5A687B6BA3
:104750009B689A4206D33B48A42359003A4A3C4BF3
:1047600007F026FEFA6B7B69D318FB63FA6B3B6894
:104770009A4206D93348A6235900334A354B07F0ED
:1047800017FEFA6B3B689A4233D27B6BDB680422DC
:104790001A437B6BDA603A68FB6BD21A7B6B9B68BF
:1047A0005B089A4205D97B6B9B685A087B6B1A633E
:1047B00004E03A68FB6BD21A7B6B1A637B6B1A1CA2
:1047C00014323C1C333401235B42101C191C04F0CE
:1047D00045FC031C23703B1C33331B78002B08D093
:1047E0003B6D002B02D03B6D05221A6001235B421A
:1047F00023E0FA6B3B689A4200D2F6E6BB6B3C1CA6
:104800003334181C04F010FD031C23703B1C33339D
:104810001B78002B05D03B6D002B02D03B6D052291
:104820001A60FA6B3B689A4206D00648B5235900D5
:10483000054A094B07F0BCFDFB6B181CBD4611B0C7
:1048400090BDC04600EF0000780001005CEF000062
:1048500070EF000098EF0000ACEF000090B591B051
:1048600000AFF860B9607A603B60FB68002B06D14E
:10487000CA48B8235900CA4ACA4B07F099FDFB68D9
:10488000BB63BB6B80337B630023FB633B68002B04
:1048900010D17B68002B0BD1BA6B3B6D101C191C1F
:1048A00000F01EFB031C002B02D001235B4297E1AA
:1048B000002395E17B68002B08D13B6D002B02D0D3
:1048C0003B6D16221A6001235B4289E1BB6B1A1C07
:1048D00020323C1C333401235B42101C191C04F0B1
:1048E00027FC031C23703B1C33331B78002B08D0A0
:1048F0003B6D002B02D03B6D05221A6001235B4209
:104900006EE13CE17B6BDA681023134033D07B6BA4
:10491000DB6804221A437B6BDA603A68FB6BD21ABD
:104920007B6B9B685B089A4205D97B6B9B685A0836
:104930007B6B1A6304E03A68FB6BD21A7B6B1A63D9
:104940007B6B1A1C14323C1C333401235B42101C59
:10495000191C04F083FB031C23703B1C33331B78AE
:10496000002B08D03B6D002B02D03B6D05221A6056
:1049700001235B4234E17B6B5B68FB627B6B1A68F3
:10498000FB6A9A4228D23A68FB6BD31ABB627B6BF4
:104990001B68FA6AD31A7B62BA6A7B6A934200D9AF
:1049A000131C7B627B6B1A697B6B1B68D1187A685E
:1049B000FB6BD3181A1C7B6A081C111C1A1C07F00D
:1049C00081FD7B6B1A687B6AD2187B6B1A60FA6B6D
:1049D0007B6AD318FB6350E03A68FB6BD31A3B62E7
:1049E0007B6B9A687B6B1B68D31AFB613A6AFB6925
:1049F000934200D9131CFB617B6B1A697B6B1B68AC
:104A0000D1187A68FB6BD3181A1CFB69081C111C9F
:104A10001A1C07F057FDFA6BFB69D318FB633A6A5F
:104A2000FB69D31A3B627B6B1A68FB69D2187B6BFC
:104A30009B68101C191CFBF773FE0B1C1A1C7B6B6C
:104A40001A603B6A002B18D0FA6A3B6A934200D97D
:104A5000131CFB617B6B19697A68FB6BD3181A1CFA
:104A6000FB69081C111C1A1C07F02CFDFA6BFB6972
:104A7000D318FB637B6BFA691A607B6B1A687B6BDC
:104A80005B689A420AD17B6B5A68FB6A9A4205D1ED
:104A90007B6BDB6810221A437B6BDA60BA6B4823AE
:104AA000D35C002B02D0022B30D05FE0BB6B1B6CC1
:104AB000BB6101F065F8BB69DB68002B0CD17B6B37
:104AC0001A687B6B5B689A4204D17B6BDA681023AF
:104AD000134001D0012200E000223B1C17331A7062
:104AE000197801220A401A7001F060F83B1C173354
:104AF0001B78002B09D0BB6B5A6CBB695B68101C20
:104B0000191C012205F096FE39E038E0BB6B1B6CE6
:104B10003B6101F035F83B699B68002B0CD17B6B46
:104B20001A687B6B5B689A4204D17B6BDA6810234E
:104B3000134001D0012200E000223B1C17331A7001
:104B4000197801220A401A7001F030F83B1C173323
:104B50001B78002B09D0BB6B5A6C3B691B68101C7F
:104B6000191C012207F046F809E008E03B6D002B14
:104B700002D03B6D16221A6001235B4230E0FA6BD3
:104B80003B689A4200D2BDE6FA6B3B689A420FD06E
:104B900002480549024A054B07F00AFC00EF0000F5
:104BA000880001005CEF000003020000C0EF00007D
:104BB000BB6B20333C1C3334181C04F035FB031C46
:104BC00023703B1C33331B78002B08D03B6D002B2C
:104BD00002D03B6D05221A6001235B4200E0FB6BB3
:104BE000181CBD4611B090BD90B58BB000AFF860F9
:104BF000B9607A603B60FB68002B05D1AB48AC49DB
:104C0000AC4AAD4B07F0D4FBFB687B6200233B62F0
:104C10003B68AA4A934200D176E0A84A934213D84F
:104C2000A74A934200D19BE0A54A934204D8802230
:104C30005201934219D02DE1A24A934200D11AE1C8
:104C4000A14A934252D025E1A04A934200D1A9E063
:104C50009E4A934200D2B9E09D4A934200D1C7E0F8
:104C60009C4A934200D1D2E014E17B6A9B6D012201
:104C70001A437B6A9A657B6A9A6D0423134021D09C
:104C80007B6A9B6D0422191C91430A1C7B6A9A65FE
:104C90007B6A0022DA677B6A60333C1C1F34181C75
:104CA00004F00CFA031C23703B1C1F331B78002BF1
:104CB0001BD07B68002B02D07B6805221A60012381
:104CC0005B42EFE07B6ADB6F002B05D077488249BF
:104CD000784A824B07F06CFB7B6A9B6D0122191CA2
:104CE00091430A1C7B6A9A65D2E0D1E0BB6B1A1D26
:104CF000BA631B683B623B6A002B00D1CAE07B6A47
:104D00005A6D3B6A1A60C3E000F03AFF7B6A0022EA
:104D10001A657B6A0022DA647B6A00229A657A6AE5
:104D20004823D35C002B02D0022B0BD015E07B6A0A
:104D30001B6CBB617B6ADA6D7B6ADB6CD218BB696A
:104D40009A600AE07B6A1B6C7B617B6ADA6D7B6A26
:104D5000DB6CD2187B695A60C04600F027FF97E0F1
:104D6000BB6B1A1DBA631B683B623B6A002B00D108
:104D700090E07B6ADB6C3B617B6A1A6D3B699A420F
:104D800006D87B6A1B6D3A69D21A3B6A1A607FE0CB
:104D90007B6A5A6D7B6A1B6DD21A3B69D2183B6ADB
:104DA0001A6075E0BB6B1A1DBA631B683B623B6AF5
:104DB000002B00D16EE07B6A9A6D022313405A1ECD
:104DC0009341DBB21A1C3B6A1A6061E0BB6B1A1D8F
:104DD000BA631B683B623B6A002B00D15AE07B6AD6
:104DE0009B6D0222191C91430A1C7B6A9A654FE055
:104DF000BB6B1A1DBA631B683B623B6A002B00D178
:104E000048E07A6A8823D2583B6A1A6040E0BB6B5C
:104E10001A1DBA631B683B623B6A002B00D139E064
:104E20007A6A8423D3583B617A6A8C23D258102340
:104E3000134005D17A6A8823D2583B6A1A6019E078
:104E40007A6A8023D2583B699A4207D87A6A8023CB
:104E5000D3583A69D21A3B6A1A600BE07A6A8823FF
:104E6000D258796A8023CB58D21A3B69D2183B6A50
:104E70001A600DE00CE07A6A7B68101C191C00F0C7
:104E80002FF8031C002B02D001235B420AE0C0462E
:104E9000002307E07B68002B02D07B6816221A6093
:104EA00001235B42181CBD460BB090BD00EF000013
:104EB000130200009C0001005CEF00000A200000CB
:104EC0000520000006200000092000000C20000042
:104ED0000D2000000E2000002D020000D4EF000085
:104EE00090B585B000AF786039607B68FB60FB6887
:104EF000002B06D13C48AC2399003C4A3C4B07F0C0
:104F000057FAFB681A1C20323C1C0B3401235B420D
:104F1000101C191C04F00CF9031C23703B1C0B33F0
:104F20001B78002B08D03B68002B02D03B68052281
:104F30001A6001235B4252E0FA688423D258F96870
:104F40008023CB589A4205D1FA688C23D25810237B
:104F500013402CD0FA688C23D3580822111C194313
:104F6000FA688C23D150FB681A1C94323C1C0B3419
:104F700001235B42101C191C04F070F8031C237001
:104F80003B1C0B331B78002B08D03B68002B02D056
:104F90003B6805221A6001235B4220E0FA688C23FB
:104FA000D3580822191C9143FA688C23D150FB680E
:104FB00020333C1C0B34181C04F036F9031C2370FE
:104FC0003B1C0B331B78002B08D03B68002B02D016
:104FD0003B6805221A6001235B4200E00023181C95
:104FE000BD4605B090BDC04600EF0000B000010016
:104FF00000F0000080B584B000AFF860B9607A605E
:105000000023181CBD4604B080BDC04690B593B0C7
:1050100002AFF860B9607A60FB68002B05D1D34815
:10502000D349D44AD44B07F0C3F9BB68002B05D150
:10503000CE48D249CF4AD24B07F0BAF9BB68BB631E
:10504000FB687B6300233B630023FB627B6B1B7C61
:10505000002B0AD17B6B1B68022B06D9C348B923EE
:105060009900C44AC74B07F0A3F9B42004F054F9DF
:10507000031CBB63BB6B002B02D10C23FB636AE1F7
:10508000BB6B4C333B637B6B9A693B6B9A603B6BAE
:1050900000225A603B6B00221A603B6B0022DA60F0
:1050A0003B6B00221A633B6B9B68032B02D83B6B64
:1050B00004229A603B6B9B68181C04F02DF9021CBB
:1050C0003B6B1A613B6B1B69002B02D10C23FB630A
:1050D0003DE1BB6B8033FB627B6BDA69FB6A9A60F4
:1050E000FB6A00225A60FB6A00221A60FB6A0022F7
:1050F000DA60FB6A00221A63FB6A9B68032B02D802
:10510000FB6A04229A60FB6A9B68181C04F004F98D
:10511000021CFB6A1A61FB6A1B69002B02D10C237B
:10512000FB630FE1BB6B181C03F0E8FF031C002BB3
:1051300002D00C23FB6300E1BB6B2033181C03F08F
:10514000DDFF031C002B02D00C23FB63F1E03B6B63
:105150001433181C002103F06BFF031C002B02D03A
:105160000C23FB63E0E0FB6A1433181C002103F0FE
:105170005FFF031C002B02D00C23FB63CFE07B6B93
:105180001B7C002B02D0022B57D0ADE0FA683B1CF1
:105190002033101C191CFFF741F9031C002B02D00F
:1051A0000623FB63B6E0602004F0B6F8021CBB6B7C
:1051B0001A64BB6B1B6C002B03D10C23FB63C04632
:1051C000A8E07B6B1B68704AD35C5BB2BB62BB6AB6
:1051D000DAB27B6BDB6852B2101C191CFFF7AEF819
:1051E0007B6B1B68B96A694A081C111C1A1C00F009
:1051F000FDFC7B6B1968BB6B1A6C3B1C2033081CD5
:10520000111C1A1C05F088F9031C002B02D0062380
:10521000FB637AE07B6B18683B6B1A695C493B6BFC
:105220000124009405F092FA7B6B1868FB6A1A69F6
:105230005849FB6A05F0CEFA59E0FA683B1C143372
:10524000101C191CFFF734F9031C002B02D0062395
:10525000FB635FE05C2004F05FF8021CBB6B1A6428
:10526000BB6B1B6C002B03D10C23FB63C04651E0CE
:105270007B6B1B68484AD35C5BB2BB62BB6ADAB229
:105280007B6BDB6852B2101C191CFFF757F87B6B65
:105290001B68B96A414A081C111C1A1C00F0A6FCC4
:1052A0007B6B1968BB6B1A6C3B1C1433081C111CFC
:1052B0001A1C06F02BFB031C002B02D00623FB63F9
:1052C00023E07B6B18683B6B1A6935493B6B012403
:1052D000009406F01BFC7B6B1868FB6A1A69314965
:1052E000FB6A06F057FC02E00623FB6312E07B6BCF
:1052F000197CBA6B4823D1547B6B1A68BB6B5A6418
:10530000BB68BA6B1A60002358E0BB6B1B6C181C9F
:1053100004F01EF8BB6B9433181C03F0DFFEBB6B6C
:105320006033181C03F0DAFEBB6B2033181C03F04B
:10533000C1FFBB6B181C03F0BDFFFB6A1B69181C87
:1053400004F006F83B6B1B69181C04F001F8BB6BFA
:10535000181C03F0FDFFFB6B002B27D10348EB2348
:105360009900044A104B07F023F8C04600EF0000F4
:10537000DA020000C800010014F00000DB020000A7
:105380005CEF000028F0000080F2FF1FBDA80000C5
:1053900071560000D157000084F2FF1F7DBC000051
:1053A0009D560000095800007CF000007B68002B2F
:1053B00002D07B68FA6B1A6001235B42181CBD4661
:1053C00011B090BD80B584B000AF786039607B6863
:1053D000FB607B68002B08D13B68002B02D03B6848
:1053E00016221A6001235B4295E0FA684823D35CD9
:1053F000002B02D0022B06D00BE0FB685B6C181C64
:1054000005F02CF90EE0FB685B6C181C06F016FB2F
:1054100008E03B68002B02D03B6816221A6001238B
:105420005B4278E0FB68002B05D13D483D493E4A90
:105430003E4B06F0BDFFFB682033002B05D13848FA
:105440003B49394A3B4B06F0B3FFFB686033002B06
:1054500006D13348F6239900334A374B06F0A8FFAC
:10546000FB689433002B05D12D4834492E4A344B28
:1054700006F09EFFFB681B6C002B05D128483149C4
:10548000294A314B06F094FFFB68DB6D002B05D1F8
:1054900023482E49244A2E4B06F08AFFFA689023AF
:1054A000D358002B06D11E48F72399001E4A294BDA
:1054B00006F07EFF7B68002B05D1194826491A4A61
:1054C000264B06F075FFFB68181C03F0F3FEFB6823
:1054D0002033181C03F0EEFEFB686033181C03F049
:1054E000FDFDFB689433181C03F0F8FDFB681B6C92
:1054F000181C03F02DFFFB68DB6D181C03F028FF60
:10550000FA689023D358181C03F022FF7B68181CFC
:1055100003F01EFF0023181CBD4604B080BDC0462A
:1055200000EF0000D6030000D800010088F0000062
:10553000D7030000A4F00000C0F00000D903000071
:10554000E4F00000DA03000008F10000DB030000D3
:105550002CF1000050F10000DD03000074F10000A8
:1055600090B585B000AF786039607B68002B05D1BD
:1055700037483849384A394B06F01AFF3B68002B48
:1055800005D133483649344A364B06F011FF7B6863
:105590001B685A1C7B689B68101C191CFBF7C0F821
:1055A0000B1C1A1C7B685B689A4206D17B68DB681F
:1055B00002221A437B68DA6047E07B681B685A1C4A
:1055C0007B689B68101C191CFBF7AAF80B1C1A1CA3
:1055D0007B681A607B681A697B681B68D2183B6815
:1055E0001A607B68DA68042313402DD07B68DA6880
:1055F0000123134028D17B681B6B5A1E7B681A63FA
:105600007B681B6B002B1FD13B1C0F3300221A70D1
:105610007B68DB680422191C91430A1C7B68DA60F2
:105620007B6814333C1C0F34181C03F047FD031C2B
:1056300023703B1C0F331B78002B05D004480A490C
:10564000054A0A4B06F0B4FEC046BD4605B090BD03
:1056500000EF0000ED030000EC00010080F100000D
:10566000EE03000090F1000005040000A0F100002E
:1056700080B584B000AF786039603B68FB60FB6840
:105680005B6DBB60FB680833BA68101C191CFFF720
:1056900067FFC046BD4604B080BDC04680B584B03B
:1056A00000AF786039603B68FB60FB681B6DBB60D6
:1056B000FB680433BA68101C191CFFF751FFC04681
:1056C000BD4604B080BDC04690B585B000AF7860DF
:1056D00039607B685B685A1C7B689B68101C191CCE
:1056E000FBF71EF80B1C1A1C7B685A607B681A6952
:1056F0007B685B68D2183B681A607B68DB681022A5
:10570000191C91430A1C7B68DA607B68DA68042301
:10571000134028D07B681B6B5A1E7B681A637B681A
:105720001B6B002B1FD13B1C0F3300221A707B68B0
:10573000DB680422191C91430A1C7B68DA607B68D1
:1057400014333C1C0F34181C03F0B8FC031C2370EA
:105750003B1C0F331B78002B05D018481849194AF9
:10576000194B06F025FE7B685A687B681B689A42D5
:105770001ED17B68DA680823134017D03B1C0E3318
:1057800000221A707B6814333C1C0E34181C03F082
:1057900095FC031C23703B1C0E331B78002B05D09B
:1057A00006480A49074A084B06F002FE012300E0BA
:1057B0000023181CBD4605B090BDC04600EF000098
:1057C0003E04000004010100C0F100004B04000091
:1057D00080B584B000AF786039603B68FB60FB68DF
:1057E000DB6DBB60FB680433BA68101C191CFFF743
:1057F0006BFF031C002B02D0FB680022DA60C0465E
:10580000BD4604B080BDC04680B584B000AF7860AE
:1058100039603B68FB60FB689B6DBB60FB68BA68E6
:10582000101C191CFFF750FF031C002B02D0FB6853
:1058300000229A60C046BD4604B080BD80B584B0E9
:1058400000AFF860B9607A603B60082003F064FD47
:10585000021C3B681A600023181CBD4604B080BDC2
:1058600080B586B000AFF860B9607A603B60FB68D5
:105870007B61BB683B613B691A683B68D2183B6936
:105880001A607B691A1C0C3201235B42101C191C24
:1058900003F0E4FB7B691A683B68D2187B691A60E5
:1058A0007B695A683B68D2187B695A607B690C3304
:1058B000181C03F003FC012003F07EFD0023181CDC
:1058C000BD4606B080BDC04680B586B000AFF8606A
:1058D000B9607A603B60FB687B61BB683B613B6998
:1058E0005A683B68D2183B695A607B691A1C0C32B3
:1058F00001235B42101C191C03F0B0FB7B691A6882
:105900003B68D2187B691A607B699A683B68D21839
:105910007B699A607B690C33181C03F0CFFB012074
:1059200003F04AFD0023181CBD4606B080BDC046EA
:1059300090B585B000AFF860B9603A607B60002335
:105940000024181C211CBD4605B090BD80B584B054
:1059500000AFF860B9607A603B600023181CBD4658
:1059600004B080BD80B584B000AFF860B9607A60E3
:10597000BB68181C03F0ECFC0023181CBD4604B0E7
:1059800080BDC04680B586B000AFF860B9607A606F
:10599000282003F0C1FC031C7B617B690C33181CBD
:1059A000012103F045FBBB687A691A600023181CCB
:1059B000BD4606B080BDC04680B582B000AF7860FD
:1059C00039607B680C33181C03F088FB7B68181C5B
:1059D00003F0BEFC0023181CBD4602B080BDC046CB
:1059E00080B584B000AF7860194B1B68FB60FB6822
:1059F000A42292009A58511CA42292009950A422E9
:105A000092009B58002B22D1FB68A52292009A5845
:105A1000511CA52292009950A52292009B58002B60
:105A200015D1FB68A62292009A58511CA62292001A
:105A30009950A62292009B58002B08D1FB68A72200
:105A400092009A58511CA72292009950CFE7CEE7B6
:105A500074F2FF1F80B500AF0023181CBD4680BD47
:105A600080B588B002AF78602A4B1B683B61142078
:105A70000021FDF703FD031CFB60FB68013306D129
:105A80002549264A264B081C782106F091FC02F095
:105A900029FC01F079FD3B693533FF33181C00F018
:105AA00055FF3A69D0235B00D3587B6123E07B69C3
:105AB0005A69012313401BD03B69DB69DA687B69B3
:105AC0009B6979690020009000200190081C111C3E
:105AD0001A1C002301F072FE031CBB60BB68002B84
:105AE00002D1042001F0EEF9BB68181C01F0A4FFFC
:105AF0007B6920337B617B691B68002BD7D13B69B5
:105B00003533FF33181C00F0BDFEFFF7A3FFBD4681
:105B100006B080BD74F2FF1FE0F100003C010100FF
:105B200028F2000080B586B000AF7860134B1B6888
:105B30007B617B69DB693B6100F022F83B699B6814
:105B40000B2B16D03B690B229A607A683B699A63EB
:105B50003B69181C412102F04FF83B695B68FB6010
:105B60003B691B68BB60FB68BA681A60BB68FA686F
:105B70005A6000F01BF8BD4606B080BD74F2FF1FEE
:105B800080B582B000AF084B1B687B607B68DB6927
:105B90005B6D002B00D172B67B68DB695A6D0132F8
:105BA0005A65BD4602B080BD74F2FF1F80B582B059
:105BB00000AF0D4B1B687B607B68DB695B6D002B66
:105BC0000ED07B68DB695A6D013A5A655B6D002B1C
:105BD00006D17B681B8B002B01D062B600E062B659
:105BE000BD4602B080BDC04674F2FF1F80B588B0CC
:105BF00000AFF860B9607A60FB681033FB603C4B23
:105C00001B687B617B699B6B002B04D1182001F022
:105C100037FD002367E0FA687B69DB6A9A4204D3A8
:105C2000FA687B691B6B9A4204D9142001F028FDA5
:105C3000002358E0FFF7A4FF7B699A6BF9687B6942
:105C4000DB6ACB1ADB089B00D3181B68FB6102E000
:105C5000FB69DB68FB61FB69002B04D0FB691A68F8
:105C6000FB689A42F4D1FB69002B2DD1102000F083
:105C7000E3FB031CFB61FB69002B06D1FFF796FFDA
:105C8000042001F0FDFC00232DE0FB69181C2321FA
:105C900000F07CFC7B699A6BF9687B69DB6ACB1A44
:105CA000DB089B00D3181A68FB69DA607B699A6B82
:105CB000F9687B69DB6ACB1ADB089B00D318FA69A9
:105CC0001A600C4BBB6102E0FB695B68BB61FB695E
:105CD000FA681A60FB69BA685A60FB697A689A6068
:105CE000FFF764FFBB69181CBD4608B080BDC04605
:105CF00074F2FF1F255B000080B586B000AF7860AE
:105D000039603A687B689A4201D20C2341E0234B08
:105D10001B683B613A69F4232149D1503B69214A10
:105D20009A623A687B68D31A0133DB0801337B61DE
:105D30007B699B00181C00F065FC031CFB60FB6882
:105D4000002B01D1042324E0FB68181C032100F080
:105D50001DFC3B69FA689A633B697A68DA623B69C1
:105D60003A681A637B6999B23A69C7239B00D1529A
:105D70003A690D4B0321D15205E07B699B00FA681B
:105D8000D31800221A607B695A1E7A61002BF4D165
:105D90000023181CBD4606B080BDC04674F2FF1F2C
:105DA00071050000255B00001E03000080B58CB06B
:105DB00000AFF860B9607A601A1CFB1C1A700023EF
:105DC0007B627B68FB6100233B62FB699A685C4BEA
:105DD0009A4204D0382001F053FC0023ACE0FB6869
:105DE0000C33FB60FB680F2B01D81023FB60FB68B2
:105DF0000F330F229343FB60FFF7C2FEFB695B6921
:105E0000FB62FB695B697B6276E0FB69FA6A9A6117
:105E1000FFF7CCFEFFF7B4FEFB699A69FB6A9A4272
